{
  "contractName": "Simplebank",
  "abi": [
    {
      "inputs": [],
      "stateMutability": "nonpayable",
      "type": "constructor"
    },
    {
      "inputs": [],
      "name": "numberOfFunders",
      "outputs": [
        {
          "internalType": "uint256",
          "name": "",
          "type": "uint256"
        }
      ],
      "stateMutability": "view",
      "type": "function",
      "constant": true
    },
    {
      "inputs": [],
      "name": "owner",
      "outputs": [
        {
          "internalType": "address",
          "name": "",
          "type": "address"
        }
      ],
      "stateMutability": "view",
      "type": "function",
      "constant": true
    },
    {
      "inputs": [
        {
          "internalType": "address",
          "name": "newOwner",
          "type": "address"
        }
      ],
      "name": "transferOwnership",
      "outputs": [],
      "stateMutability": "nonpayable",
      "type": "function"
    },
    {
      "inputs": [],
      "name": "addFunds",
      "outputs": [],
      "stateMutability": "payable",
      "type": "function",
      "payable": true
    },
    {
      "inputs": [],
      "name": "getAllFunders",
      "outputs": [
        {
          "internalType": "address[]",
          "name": "",
          "type": "address[]"
        }
      ],
      "stateMutability": "view",
      "type": "function",
      "constant": true
    },
    {
      "inputs": [
        {
          "internalType": "uint256",
          "name": "withdrawAmount",
          "type": "uint256"
        }
      ],
      "name": "withdraw",
      "outputs": [],
      "stateMutability": "nonpayable",
      "type": "function"
    }
  ],
  "bytecode": "0x608060405234801561001057600080fd5b5033600360006101000a81548173ffffffffffffffffffffffffffffffffffffffff021916908373ffffffffffffffffffffffffffffffffffffffff160217905550610a99806100616000396000f3fe6080604052600436106100555760003560e01c80632e1a7d4d1461005a5780636fbbb55d146100835780638da5cb5b146100ae578063a26759cb146100d9578063dc79a7fc146100e3578063f2fde38b1461010e575b600080fd5b34801561006657600080fd5b50610081600480360381019061007c919061065f565b610137565b005b34801561008f57600080fd5b50610098610224565b6040516100a5919061077c565b60405180910390f35b3480156100ba57600080fd5b506100c361031d565b6040516100d091906107ad565b60405180910390f35b6100e1610343565b005b3480156100ef57600080fd5b506100f861054a565b60405161010591906107d7565b60405180910390f35b34801561011a57600080fd5b506101356004803603810190610130919061081e565b610550565b005b670de0b6b3a76400008111158061019b5750600360009054906101000a900473ffffffffffffffffffffffffffffffffffffffff1673ffffffffffffffffffffffffffffffffffffffff163373ffffffffffffffffffffffffffffffffffffffff16145b6101da576040517f08c379a00000000000000000000000000000000000000000000000000000000081526004016101d1906108ce565b60405180910390fd5b3373ffffffffffffffffffffffffffffffffffffffff166108fc829081150290604051600060405180830381858888f19350505050158015610220573d6000803e3d6000fd5b5050565b60606000805467ffffffffffffffff811115610243576102426108ee565b5b6040519080825280602002602001820160405280156102715781602001602082028036833780820191505090505b50905060005b600054811015610315576002600082815260200190815260200160002060009054906101000a900473ffffffffffffffffffffffffffffffffffffffff168282815181106102c8576102c761091d565b5b602002602001019073ffffffffffffffffffffffffffffffffffffffff16908173ffffffffffffffffffffffffffffffffffffffff1681525050808061030d9061097b565b915050610277565b508091505090565b600360009054906101000a900473ffffffffffffffffffffffffffffffffffffffff1681565b6000339050600160008273ffffffffffffffffffffffffffffffffffffffff1673ffffffffffffffffffffffffffffffffffffffff16815260200190815260200160002060009054906101000a900460ff166104a65760008060008154809291906103ad9061097b565b91905055905060018060008473ffffffffffffffffffffffffffffffffffffffff1673ffffffffffffffffffffffffffffffffffffffff16815260200190815260200160002060006101000a81548160ff021916908315150217905550816002600083815260200190815260200160002060006101000a81548173ffffffffffffffffffffffffffffffffffffffff021916908373ffffffffffffffffffffffffffffffffffffffff16021790555034600460008473ffffffffffffffffffffffffffffffffffffffff1673ffffffffffffffffffffffffffffffffffffffff1681526020019081526020016000208190555050610547565b34600460008373ffffffffffffffffffffffffffffffffffffffff1673ffffffffffffffffffffffffffffffffffffffff168152602001908152602001600020546104f191906109c3565b600460008373ffffffffffffffffffffffffffffffffffffffff1673ffffffffffffffffffffffffffffffffffffffff168152602001908152602001600020600082825461053f91906109c3565b925050819055505b50565b60005481565b600360009054906101000a900473ffffffffffffffffffffffffffffffffffffffff1673ffffffffffffffffffffffffffffffffffffffff163373ffffffffffffffffffffffffffffffffffffffff16146105e0576040517f08c379a00000000000000000000000000000000000000000000000000000000081526004016105d790610a43565b60405180910390fd5b80600360006101000a81548173ffffffffffffffffffffffffffffffffffffffff021916908373ffffffffffffffffffffffffffffffffffffffff16021790555050565b600080fd5b6000819050919050565b61063c81610629565b811461064757600080fd5b50565b60008135905061065981610633565b92915050565b60006020828403121561067557610674610624565b5b60006106838482850161064a565b91505092915050565b600081519050919050565b600082825260208201905092915050565b6000819050602082019050919050565b600073ffffffffffffffffffffffffffffffffffffffff82169050919050565b60006106e3826106b8565b9050919050565b6106f3816106d8565b82525050565b600061070583836106ea565b60208301905092915050565b6000602082019050919050565b60006107298261068c565b6107338185610697565b935061073e836106a8565b8060005b8381101561076f57815161075688826106f9565b975061076183610711565b925050600181019050610742565b5085935050505092915050565b60006020820190508181036000830152610796818461071e565b905092915050565b6107a7816106d8565b82525050565b60006020820190506107c2600083018461079e565b92915050565b6107d181610629565b82525050565b60006020820190506107ec60008301846107c8565b92915050565b6107fb816106d8565b811461080657600080fd5b50565b600081359050610818816107f2565b92915050565b60006020828403121561083457610833610624565b5b600061084284828501610809565b91505092915050565b600082825260208201905092915050565b7f596f752063616e2774207769746864726177206d6f7265207468616e2031206560008201527f7468657200000000000000000000000000000000000000000000000000000000602082015250565b60006108b860248361084b565b91506108c38261085c565b604082019050919050565b600060208201905081810360008301526108e7816108ab565b9050919050565b7f4e487b7100000000000000000000000000000000000000000000000000000000600052604160045260246000fd5b7f4e487b7100000000000000000000000000000000000000000000000000000000600052603260045260246000fd5b7f4e487b7100000000000000000000000000000000000000000000000000000000600052601160045260246000fd5b600061098682610629565b91507fffffffffffffffffffffffffffffffffffffffffffffffffffffffffffffffff82036109b8576109b761094c565b5b600182019050919050565b60006109ce82610629565b91506109d983610629565b92508282019050808211156109f1576109f061094c565b5b92915050565b7f4f6e6c7920746865206f776e65722063616e20646f2074686174000000000000600082015250565b6000610a2d601a8361084b565b9150610a38826109f7565b602082019050919050565b60006020820190508181036000830152610a5c81610a20565b905091905056fea2646970667358221220ba8bb4992e63fef6fa38336055abc351f107dc4f3e8ba1453aaa2c076228fefe64736f6c63430008110033",
  "immutableReferences": {},
  "source": "// SPDX-License-Identifier: MIT\r\npragma solidity >=0.4.22 <0.9.0;\r\n \r\ncontract Simplebank {\r\n  uint public numberOfFunders;\r\n  mapping(address => bool) private funders;\r\n  mapping(uint => address) private lutFunders;\r\n  address public owner;\r\n  mapping(address => uint) private fundersCumSum;\r\n\r\n  constructor (){\r\n    owner = msg.sender;\r\n  }\r\n\r\n  modifier onlyOwner(){\r\n    require(msg.sender == owner, \"Only the owner can do that\");\r\n    _;\r\n  }\r\n\r\n  function transferOwnership(address newOwner) external onlyOwner{\r\n    owner = newOwner;\r\n  }\r\n\r\n  function addFunds() external payable{\r\n    address funder = msg.sender;\r\n    if(!funders[funder]){\r\n      uint index = numberOfFunders++;\r\n      funders[funder]=true;\r\n      lutFunders[index] = funder;\r\n      fundersCumSum[funder] = msg.value;\r\n    }\r\n    else{\r\n      fundersCumSum[funder] += fundersCumSum[funder] + msg.value;\r\n    }\r\n  }\r\n  \r\n  function getAllFunders() external view returns(address[] memory) {\r\n    address[] memory _funders = new address[](numberOfFunders);\r\n    for(uint i=0; i<numberOfFunders ; i++){\r\n      _funders[i]=lutFunders[i];\r\n    }\r\n    return _funders;\r\n  }\r\n\r\n  function withdraw(uint withdrawAmount) external {\r\n    require(withdrawAmount <= 1000000000000000000 || msg.sender==owner, \"You can't withdraw more than 1 ether\");\r\n    payable (msg.sender).transfer(withdrawAmount);\r\n  }\r\n}\r\n\r\n// truffle migrate --reset\r\n// truffle console\r\n// const instance = await Simplebank.deployed()\r\n// instance.addFunds({value:\"500000000000000000\", from:accounts[0]})\r\n// instance.addFunds({value:\"500000000000000000\", from:accounts[1]})\r\n// const funds = instance.funds()\r\n// instance.getAllFunders()\r\n// instance.withdraw(\"1000000000000000000\", {from:accounts[1]})\r\n// instance.transferOwnership(\"0xf225f73d2E74abd44Aee05064e658870Aa865D38\")\r\n",
  "sourcePath": "C:\\Users\\batel\\Desktop\\scripts\\web3test\\contracts\\Simplebank.sol",
  "compiler": {
    "name": "solc",
    "version": "0.8.17+commit.8df45f5f.Emscripten.clang"
  },
  "schemaVersion": "3.4.11",
  "updatedAt": "2023-01-17T09:18:25.978Z",
  "networkType": "ethereum",
  "devdoc": {
    "kind": "dev",
    "methods": {},
    "version": 1
  },
  "userdoc": {
    "kind": "user",
    "methods": {},
    "version": 1
  }
}